S014000050726F6A65637431343031662E737265630D
S214080000B029072035060800310608003106080022
S2140800103106080031060800310608000000000016
S2140800200000000000000000000000003106080084
S21408003031060800000000003106080031060800F6
S21408004031060800310608003106080031060800A7
S2140800503106080031060800310608003106080097
S214080060310608003106080000000000890508006F
S2140800709D050800B1050800C50508000000000039
S21408008000000000390208003106080031060800A2
S2140800903106080031060800310608003106080057
S2140800A03106080000000000310608003106080086
S2140800B03106080031060800310608003106080037
S2140800C03106080031060800310608003106080027
S2140800D03106080031060800310608003106080017
S2140800E03106080031060800310608003106080007
S2140800F03106080010B5054C237833B9044B13B104
S2140801000448AFF300800123237010BD440807207D
S214080110000000004410080008B5064B1BB106484E
S2140801200649AFF300800648036813B1054B03B1D0
S214080130984708BD0000000044100800480807203B
S21408014044100800000000002DE9F04F83B0054673
S2140801509046002A47D04E1C254F264CDFF8A8A00C
S214080160DFF894B006F1FF3900230193224B9D4235
S21408017006D158464946214B98470028F9D119E038
S2140801801F4B9D4209D19946484601A9A047002819
S214080190FAD1019B06F8013C17E01A4B9D4209D19B
S2140801A09946484601A9A0470028FAD1019B06F8B7
S2140801B0013C14E0554508D1504601A9A04700283F
S2140801C0FAD1019B06F8013C09E0BD4207D1384642
S2140801D001A9A0470028FAD1019B06F8013C013680
S2140801E0B8F10108BED1002003B0BDE8F08F00BF0B
S2140801F000400A402102080000080E400D020800D0
S2140802000080094000C0094000000A40436913F016
S214080210010F1DBF83690B7000200120704700BFC7
S214080220436913F0010F05D08369C3F308030B6015
S214080230002070470120704700B583B011480DF1C3
S21408024007010122104B984772B6BFF35F8F002252
S2140802500E4B1A700E4B1B789DF807100D4AD1549A
S2140802609B2B03D100220A4B1A7002E00133084A7E
S21408027013700122054B1A70BFF35F8F62B603B086
S2140802805DF804FB008009404901080000000720CB
S214080290FC0807206008072010B54FF40042164BEC
S2140802A05A600B20154CA0470C20A0470D20A047ED
S2140802B00E20A0473B204FF06051114CA047552018
S2140802C04FF06051A04756204FF06051A047682075
S2140802D00C49A0475C200C49A0470C484FF44071D5
S2140802E00B4A0C4B98472B204FF00061A0472A205A
S2140802F04FF00061A04710BD501A0E40D9050800FF
S214080300BD0308007900002801000028000E0E40F2
S21408031001000008910408004264B1F1805F16D01D
S21408032004D8C1B1B1F1006F0AD013E0B1F1405F53
S21408033011D0B1F1605F0ED0B1F1205F0AD17047DD
S214080340036F016F0B4023EA0203036702E0036FA3
S2140803501343036742607047416412F0010F14BFED
S2140803604166016612F00A0F14BF0162416212F07C
S214080370020F02D0C0F8801004E012F0080F18BF71
S214080380C0F8841041610160704700BF10B4416432
S214080390019C0CB1416600E001660BB1016500E006
S2140803A041650AB1016300E04163016101605DF8DF
S2140803B0044B7047C06C7047806C704770B582B04D
S2140803C00D46440904F5001404F20774660201F0A9
S2140803D0F044B4F1205F30D006D8B4F1006F0AD0EC
S2140803E0B4F1805F18D049E0B4F1405F30D0B4F182
S2140803F0605F2DD042E000F01F00012484403046A4
S2140804004FF0006122461F4B984715F0010F14BFA6
S21408041074663466012032E000F01F000124844030
S21408042030464FF080512246164B984715F0010F7C
S21408043014BF74663466012021E000F01F01012411
S214080440304604FA01F12A460F4B9847204616E034
S21408045000F01F01012405F0605205EA040300932A
S214080460304604FA01F1B2F1605F14BF002201229F
S214080470C5F38003054DA847204600E0002002B0DB
S21408048070BD00BF19030800590308008D03080053
S214080490F0B583B007460E46154602F0F044B4F1B0
S2140804A0205F26D006D8B4F1006F0AD0B4F1805F7A
S2140804B013D034E0B4F1405F1FD0B4F1605F1CD0B5
S2140804C02DE04FF000613246164B984715F0010FA5
S2140804D014BF7E663E66012022E04FF08051324609
S2140804E0104B984715F0010F14BF7E663E66012034
S2140804F016E00D4B9847012012E005F0605205F013
S2140805000103009338463146B2F1605F14BF0022FB
S2140805100122C5F38003054CA047012000E0002017
S21408052003B0F0BD19030800590308008D0308003E
S2140805302DE9F04104460E46104B984705462046DE
S2140805400F4B9847054017D00E4F07F10C046C3731
S21408055054F80C3CB3420AD154F8081C294206D079
S21408056023683046984754F8083C25EA0305BC42F9
S21408057002D01034002DEBD1BDE8F081B503080099
S214080580B90308000009072008B502480B21024BEA
S214080590984708BD000E0E403105080008B5024809
S2140805A00C21024B984708BD00100E403105080084
S2140805B008B502480D21024B984708BD00120E40A8
S2140805C03105080008B502480E21024B984708BDB9
S2140805D000140E40310508002C2820D81F280DD8F6
S2140805E0124B9A69012383401A40934219D001237B
S2140805F003FA00F00D4B1861002070470B4BD3F838
S21408060008212038012383401A4093420BD0012347
S21408061003FA00F0054BC3F80001002070470120DC
S2140806207047002070470020704700BF00060E4045
S214080630FEE700BF10B51E4B1E4A9A4203D01E4B5B
S2140806401B4A9A4204D31D4B1D4A9A420FD31AE0FE
S2140806501C4B1D4CE41A24F00304043400231448ED
S21408066014495A581A500433A342FAD1EBE7174BE9
S2140806701749C91A21F003011A1D1144002243F82C
S214080680042F8B42FBD1134A22F0604323F07F03EA
S21408069011498B6002F16042B2F5801F03D28A6866
S2140806A042F000528A600D4B98470D4B9847FEE77C
S2140806B0000007204410080044080720AC0907205B
S2140806C0440807200400072047080720400807209A
S2140806D0A70907200000080000ED00E02907080029
S2140806E019070800094B1B6813B9094A074B1A6013
S2140806F0064B1B681A180749914204DB1046034A42
S2140807001060184670474FF0FF3070477009072092
S214080710B0290720FC7F082008B5024B9847002020
S21408072008BD00BF9902080070B50F4E0F4D761B26
S214080730B61007D0043D0024013455F8043F984706
S214080740A642F9D10A4E0B4D00F06AFC761BB6108D
S21408075008D0043D0024013455F8043F9847A642C3
S214080760F9D170BD70BD00BF2C1008002C10080011
S214080770341008002C100800024B13B1024800F091
S21408078005B87047000000009907080001460020D9
S2140807900246034600F0ECBB38B5094D094C641B0D
S2140807A0A41018BF05EB840505D0013C55F8043D98
S2140807B09847002CF9D1BDE8384000F03BBC00BF94
S2140807C04010080044100800F8B5234D0F460446AC
S2140807D000F0B8FBAB685E6826F00306F11B01F66E
S2140807E0EF7121F47F6121F00F01A1F58057B7F56D
S2140807F0805F07DB2046002100F0A8FBAB68334487
S214080800984204D0204600F09FFB0020F8BD204602
S214080810794200F09BFB01300DD0104BAA6819688E
S214080820F61B46F001062046C91B5660196000F004
S2140808308BFB0120F8BD2046002100F087FBAB6843
S214080840C21A0F2ADEDD064D04492D6842F0010261
S214080850401B5A600860D5E7340407208009072043
S214080860400807202DE9F0410D460646002955D0D8
S21408087000F068FB55F8041CDFF870C1A5F1080401
S21408088021F00103E218DCF808005768904227F0C8
S214080890030768D011F00101576032D00021D01943
S2140808A04068C00706D43B44906800294DD0D268FB
S2140808B0C260906043F001026260E350E1B9B3F5AC
S2140808C0007F2DD35A0A042A69D89809383041007F
S2140808D00CEB810CDCF808204449624565D0516869
S2140808E021F003018B4202D292689445F7D1D3686F
S2140808F0E360A2609C60D4603046BDE8F04100F03A
S21408090023BB55F8085C0CF10808641BA0682B4448
S214080910404542D0E568C560A860C0E7BDE8F081FC
S214080920DB089A1001209040DCF804100CEBC30397
S2140809309A680143A260E360CCF8041030469C60D5
S214080940D460BDE8F04100F0FFBA294DA842AED108
S21408095043F00102CCF81440CCF81040E060A060E8
S2140809606260E350C8E71F44CB0707D455F8081C55
S214080970641AE368A2680F44D3609A601D4B47F078
S21408098001021B6862609F42CCF80840B4D31A4B39
S21408099030461968FFF718FFAEE701217FE7142AEB
S2140809A00BD802F15B00410092E7801001258540D4
S2140809B048681346284348609AE7542A03D8180B11
S2140809C06E30410084E7B2F5AA7F03D8D80B77309B
S2140809D041007DE740F254518A4203D8980C7C3097
S2140809E0410075E7FC217E2072E700BF340407202B
S2140809F03C0407203C0807207C090720024B0146D8
S214080A00186800F003B800BF300407202DE9F04F3F
S214080A1001F10B05162D83B0064627D935F00705D4
S214080A2027D4A94225D8304600F08CFAB5F5FC7FC5
S214080A3026D2C14F4FEAD50C07EBCC03DC689C42A4
S214080A4000F0D2816368E26823F003032344586801
S214080A50A16840F00105CA60304691605D6000F00C
S214080A6073FA0834204603B0BDE8F08F1025A94273
S214080A70D9D900240C232046336003B0BDE8F08F94
S214080A805FEA552C00F08980BCF1040F00F2608103
S214080A904FEA951C0CF1380C4FEA4C01A64F07EBB1
S214080AA08101CC68A14205D10CE0002B79DAE46814
S214080AB0A14207D0626822F00302531B0F2BF4DD15
S214080AC00CF1FF3C0CF1010C9B4B3C6903F1080E42
S214080AD0744500F07E81616821F003014A1B0F2AE5
S214080AE000F36481002AC3F814E0C3F810E069DA5A
S214080AF0B1F5007F80F03A81C9088A104FF00108E6
S214080B0008FA02F803EBC1015A68886848EA020244
S214080B10A060E1605A608C60C4604FEAAC030120B4
S214080B20984090425BD8024206D12CF0030C400055
S214080B3002420CF1040CFAD007EBCC084446E14616
S214080B40E3689C4207D146E1002A80F25781DB68B9
S214080B509C4200F04081596821F003014A1B0F2A85
S214080B60F2DD1C4654F808CFD96845F0010942F072
S214080B7001081D44C3F804903046CCF80C10C1F8A0
S214080B8008C07D613D61C5F80CE0C5F808E0C5F809
S214080B900480AA5000F0D8F964E77E214FF03F0C95
S214080BA07CE722445068E368A16840F00105CB6002
S214080BB030469960556000F0C7F90834204603B0FF
S214080BC0BDE8F08F21444B68304643F001034B6084
S214080BD000F0BAF90834204603B0BDE8F08FBC68C8
S214080BE0636823F00309A94504D3C5EB09030F2B53
S214080BF000F39180514B524A1968136805EB010AB5
S214080C00013304EB090B00F061810AF5805A0AF1FA
S214080C100F0A2AF47F6A2AF00F0A304651460192D4
S214080C2000F094F9B0F1FF3F8046019A00F0018188
S214080C30834500F2FB80DFF814C1C345DCF80030BA
S214080C405344CCF8003000F04A8112683C4901321F
S214080C501BBFCBEB080B5B44C1F80080CCF8003018
S214080C6018F0070300F01481C3F10802C3F5805397
S214080C7090440833C244CAF30B0ACAEB030A514627
S214080C803046CDF804C000F061F9431CDDF804C016
S214080C9000F03581C8EB0002524442F00102DCF84D
S214080CA00030BC425344C7F80880CCF80030C8F877
S214080CB00420DFF898A015D0B9F10F0F40F2EB80AA
S214080CC06168A9F10C0222F0070201F0010142EA6C
S214080CD0010E0520A1180F2AC4F804E048608860B1
S214080CE000F21181174ABC6811688B4288BF1360EE
S214080CF0154A11688B4288BF1360626822F00302A7
S214080D009542C5EB020301D80F2B04DC304600F0F1
S214080D101BF90024A6E645F0010243F0010325442A
S214080D2062603046BD606B6000F00EF908342046FD
S214080D3003B0BDE8F08F00BF340407207C09072005
S214080D40400807207809072074090720800907202B
S214080D50BCF1140F61D9BCF1540F00F28F804FEA32
S214080D60153C0CF16E0C4FEA4C0197E64B0A042B27
S214080D7058D9142B00F2AD8003F15B02500007EB44
S214080D8080008368DFF8B881834200F08A805A685A
S214080D9022F00302914202D29B689842F7D1D968A2
S214080DA07A68E160A3608C60DC60B6E645F001070F
S214080DB042F001012544676030465D611D61C5F853
S214080DC00CE0C5F808E06960AA50083400F0BCF8E2
S214080DD048E65A68A1E609F1010919F0030F04F17B
S214080DE008047FF4ADAE2DE004F108036469A3425D
S214080DF008BF0CF1020C3FF467AE23E619444868B6
S214080E001C4654F8082FDB6840F001054D60304654
S214080E10D3609A6000F098F824E60CF15B0C4FEA71
S214080E204C013BE68A0938325000A8E7BC423FF43A
S214080E3002AFBC68626822F0030261E7D8F8008057
S214080E4098457AD11CF0030FA8F108030CF1FF3C73
S214080E50F4D17B6823EA00037B60400098423FF6A3
S214080E60BEAE00283FF4BBAE0342CC467FF464AE69
S214080E70400003420CF1040CFAD05DE6BCF5AA7FEC
S214080E8019D84FEAD53C0CF1770C4FEA4C0105E629
S214080E904FF48053EEE60123C8F804304446002297
S214080EA02EE7921001209040D8F8042019460243F5
S214080EB0C8F8042075E740F254539C451BD84FEAFF
S214080EC0954C0CF17C0C4FEA4C01E7E50AF1100A48
S214080ED0A3E6542B1FD80A0B6E3250004FE7CBF30D
S214080EE00B0100297FF4B1AE0AEB0901BA6841F09C
S214080EF001015160F6E6FC214FF07E0CCEE501229A
S214080F004FF0000ACBE604F108013046FFF7AAFCCA
S214080F10DAF80030E6E6B3F5AA7F03D8CA0B7732CC
S214080F2050002CE740F25452934203D88A0C7C3285
S214080F30500024E7FC207E2221E77B688DE700BF6F
S214080F4034040720704700BF704700BF38B5074C09
S214080F500023054608462360FFF7C4FB431C00D061
S214080F6038BD2368002BFBD02B6038BDA8090720A6
S214080F70F0B5274C85B026680746D6F84841002CB9
S214080F8040D065681F2D1EDD224818B94FF0FF3087
S214080F9005B0F0BD4FF4C870039102920193FFF7B5
S214080FA02DFD03990446029A019B0028EED0D6F838
S214080FB048510020256060600546C6F84841C4F8D8
S214080FC08801C4F88C013FB96B1C002002356360A9
S214080FD044F8251005B0F0BD0126AE4004EB8500A8
S214080FE0C0F88820D4F88821022F42EA0602C4F8FE
S214080FF08821C0F80831E7D1D4F88C311E43C4F8EC
S2140810008C61E1E706F5A674C6F84841B9E700BF63
S2140810101C100800FD09080043000000080007200F
S214081020F8B500BFF8BC08BC9E46704779070800AC
S21408103019010800F8B500BFF8BC08BC9E46704702
S208081040F5000800A2
S214081044010000000000000000000000F402072071
S2140810545C030720C403072000000000000000000B
S214081064000000000000000000000000000000006F
S214081074000000000000000000000000181008002F
S214081084000000000000000000000000000000004F
S214081094000000000000000000000000000000003F
S2140810A4000000000000000000000000000000002F
S2140810B4000000000000000000000000000000001F
S2140810C4000000000000000000000000000000000F
S2140810D400000000000000000000000000000000FF
S2140810E400000000000000000000000000000000EF
S2140810F401000000000000000E33CDAB34126DE68C
S214081104ECDE05000B0000000000000000000000F4
S21408111400000000000000000000000000000000BE
S21408112400000000000000000000000000000000AE
S214081134000000000000000000000000000000009E
S214081144000000000000000000000000000000008E
S21408147408000720000000000000000034040720CD
S214081484340407203C0407203C04072044040720AF
S214081494440407204C0407204C040720540407205F
S2140814A4540407205C0407205C040720640407200F
S2140814B4640407206C0407206C04072074040720BF
S2140814C4740407207C0407207C040720840407206F
S2140814D4840407208C0407208C040720940407201F
S2140814E4940407209C0407209C040720A4040720CF
S2140814F4A4040720AC040720AC040720B40407207F
S214081504B4040720BC040720BC040720C40407202E
S214081514C4040720CC040720CC040720D4040720DE
S214081524D4040720DC040720DC040720E40407208E
S214081534E4040720EC040720EC040720F40407203E
S214081544F4040720FC040720FC04072004050720ED
S214081554040507200C0507200C050720140507209A
S214081564140507201C0507201C050720240507204A
S214081574240507202C0507202C05072034050720FA
S214081584340507203C0507203C05072044050720AA
S214081594440507204C0507204C050720540507205A
S2140815A4540507205C0507205C050720640507200A
S2140815B4640507206C0507206C05072074050720BA
S2140815C4740507207C0507207C050720840507206A
S2140815D4840507208C0507208C050720940507201A
S2140815E4940507209C0507209C050720A4050720CA
S2140815F4A4050720AC050720AC050720B40507207A
S214081604B4050720BC050720BC050720C405072029
S214081614C4050720CC050720CC050720D4050720D9
S214081624D4050720DC050720DC050720E405072089
S214081634E4050720EC050720EC050720F405072039
S214081644F4050720FC050720FC05072004060720E8
S214081654040607200C0607200C0607201406072095
S214081664140607201C0607201C0607202406072045
S214081674240607202C0607202C06072034060720F5
S214081684340607203C0607203C06072044060720A5
S214081694440607204C0607204C0607205406072055
S2140816A4540607205C0607205C0607206406072005
S2140816B4640607206C0607206C06072074060720B5
S2140816C4740607207C0607207C0607208406072065
S2140816D4840607208C0607208C0607209406072015
S2140816E4940607209C0607209C060720A4060720C5
S2140816F4A4060720AC060720AC060720B406072075
S214081704B4060720BC060720BC060720C406072024
S214081714C4060720CC060720CC060720D4060720D4
S214081724D4060720DC060720DC060720E406072084
S214081734E4060720EC060720EC060720F406072034
S214081744F4060720FC060720FC06072004070720E3
S214081754040707200C0707200C0707201407072090
S214081764140707201C0707201C0707202407072040
S214081774240707202C0707202C07072034070720F0
S214081784340707203C0707203C07072044070720A0
S214081794440707204C0707204C0707205407072050
S2140817A4540707205C0707205C0707206407072000
S2140817B4640707206C0707206C07072074070720B0
S2140817C4740707207C0707207C0707208407072060
S2140817D4840707208C0707208C0707209407072010
S2140817E4940707209C0707209C070720A4070720C0
S2140817F4A4070720AC070720AC070720B407072070
S214081804B4070720BC070720BC070720C40707201F
S214081814C4070720CC070720CC070720D4070720CF
S214081824D4070720DC070720DC070720E40707207F
S214081834E4070720EC070720EC070720F40707202F
S214081844F4070720FC070720FC07072004080720DE
S214081854040807200C0807200C080720140807208B
S214081864140807201C0807201C080720240807203B
S214081874240807202C0807202C080720000002004C
S208081884FFFFFFFF57
S804080635B8
